{
  "transactions": [
    {
      "hash": "0xb696baca6d9b29f77c009747aecf11e30195ac092b19d383a36c597f2d088443",
      "transactionType": "CALL",
      "contractName": "BasicNft",
      "contractAddress": "0x2bA35b0ee190F4BAb33188410d6E0fbbDD8951A7",
      "function": "mintNft(string)",
      "arguments": [
        "ipfs://bafybeico4yipth5bdb6ymlatbei5kqr6drghrdndefxuruzzbfswjlnboa/?filename=angry_bubble.json"
      ],
      "transaction": {
        "type": "0x02",
        "from": "0x41373361d0b0b87ecb6ac78ee20a9382a807f8c4",
        "to": "0x2ba35b0ee190f4bab33188410d6e0fbbdd8951a7",
        "gas": "0x41065",
        "value": "0x0",
        "data": "0xda86f4a90000000000000000000000000000000000000000000000000000000000000020000000000000000000000000000000000000000000000000000000000000005e697066733a2f2f62616679626569636f3479697074683562646236796d6c6174626569356b7172366472676872646e646566787572757a7a626673776a6c6e626f612f3f66696c656e616d653d616e6772795f627562626c652e6a736f6e0000",
        "nonce": "0x8",
        "accessList": []
      },
      "additionalContracts": [],
      "isFixedGasLimit": false
    }
  ],
  "receipts": [],
  "libraries": [],
  "pending": [
    "0xb696baca6d9b29f77c009747aecf11e30195ac092b19d383a36c597f2d088443"
  ],
  "returns": {},
  "timestamp": 1698427985,
  "chain": 11155111,
  "multi": false,
  "commit": "554b696"
}